S01F00004F6E2D64656D616E642D747261666669632D6C696768742E7372656361
S11300000C9432000C94D9000C944F000C944F00C3
S11300100C944F000C944F000C944F000C944F0020
S11300200C944F000C944F000C944F000C944F0010
S11300300C944F000C944F000C944F000C944F0000
S11300400C944F000C944F000C944F000C944F00F0
S11300500C944F00260428042C043004340438047F
S11300603C04400411241FBECFE5D8E0DEBFCDBF61
S113007010E0A0E6B0E0E2EDF8E002C005900D92D9
S1130080A236B107D9F720E0A2E6B0E001C01D9284
S1130090A336B207E1F70E94F3020C9467040C94B0
S11300A00000CF93DF93D82FC62F82E40E94EB0287
S11300B06D2F81E40E94EB024CE065E082E00E9437
S11300C044046C2F82E40E94EF026D2F81E40E94AD
S11300D0EF024CE065E082E00E9444046D2F81E46D
S11300E00E94EB026C2F82E40E94EB024CE065E07C
S11300F082E00E9444046D2F81E40E94EF026C2F81
S113010082E40E94EF024CE065E082E00E94440435
S11301106D2F81E40E94EB026C2F82E40E94EB02BB
S11301204CE065E082E00E9444046D2F81E40E946B
S1130130EF026C2F82E40E94EF024CE065E082E063
S11301400E9444046D2F81E40E94EB026C2F82E430
S11301500E94EB024CE065E082E00E9444046D2FB3
S113016081E40E94EF026C2F82E40E94EF024CE0D3
S113017065E082E00E9444046D2F81E40E94EB025A
S11301806C2F82E40E94EB024CE065E082E00E9466
S113019044046D2F81E40E94EF026C2F82E40E94DC
S11301A0EF024CE065E082E00E944404DF91CF91CD
S11301B008951F920F920FB60F9211242F933F931D
S11301C04F935F936F937F938F939F93AF93BF935B
S11301D0CF93DF93EF93FF9360916200613009F452
S11301E057C020F0623009F4B1C0C8C081E40E9455
S11301F0EF02D2E0D093600062E082E40E94EB025E
S1130200C1E0C0936000C093620061E081E00E949D
S1130210510062E082E40E94EF0210926000D093E9
S1130220620062E081E40E94EB026091600082E47B
S11302300E94EB024CE065E083E10E94440460917B
S1130240620081E40E94EF02C0936000C0936200E8
S113025061E081E00E94510060E082E40E94EF02CC
S113026010926200D093600060E081E40E94EB028F
S11302706091600082E40E94EB024CE065E083E15F
S11302800E9444046091600082E40E94EF0276C000
S113029081E40E94EF02D2E0D093600062E082E445
S11302A00E94EB02C1E0C0936000C093620061E071
S11302B081E00E94510062E082E40E94EF026091BA
S11302C0620081E40E94EF0210926000D093620009
S11302D062E081E40E94EB026091600082E40E948B
S11302E0EB024CE065E083E10E944404609162000B
S11302F081E40E94EF02C0936000C093620061E059
S113030081E00E94510060E082E40E94EF021092BA
S11303106200D093600060E081E40E94EB0260918F
S1130320600082E40E94EB024CE065E083E10E94FD
S113033044046091600082E40E94EF0260916200D4
S113034081E40E94EF02C093620018C082E08093AF
S113035062001092600062E081E40E94EB0260910E
S1130360600082E40E94EB024CE065E083E10E94BD
S113037044046091600082E40E94EF0285E00E94E0
S11303801D04FF91EF91DF91CF91BF91AF919F91A8
S11303908F917F916F915F914F913F912F910F902A
S11303A00FBE0F901F901895789462E084E40E9429
S11303B0E3020E94EA0382E00E94EE0360E081E42B
S11303C00E94E70261E081E40E94E70262E081E4C6
S11303D00E94E70260E082E40E94E70261E082E4B6
S11303E00E94E70262E082E40E94E7021092620047
S11303F060E081E40E94EB024CE065E083E10E944E
S113040044046091620081E40E94EF02C1E0C09361
S1130410620061E081E40E94EB024CE065E082E06E
S11304200E9444046091620081E40E94EF024CE067
S113043065E082E00E9444046091620081E40E94CD
S1130440EB024CE065E082E00E94440460916200AB
S113045081E40E94EF024CE065E082E00E944404E3
S11304606091620081E40E94EB024CE065E082E06E
S11304700E9444046091620081E40E94EF024CE017
S113048065E082E00E9444046091620081E40E947D
S1130490EB024CE065E082E00E944404609162005B
S11304A081E40E94EF024CE065E082E00E94440493
S11304B06091620081E40E94EB024CE065E082E01E
S11304C00E9444046091620081E40E94EF024CE0C7
S11304D065E082E00E94440482E08093620062E06E
S11304E081E40E94EB024CE065E083E10E94440455
S11304F06091620081E40E94EF02C093620061E0B7
S113050081E40E94EB024CE065E082E00E94440436
S11305106091620081E40E94EF024CE065E082E0B9
S11305200E9444046091620081E40E94EB024CE06A
S113053065E082E00E9444046091620081E40E94CC
S1130540EF024CE065E082E00E94440460916200A6
S113055081E40E94EB024CE065E082E00E944404E6
S11305606091620081E40E94EF024CE065E082E069
S11305700E9444046091620081E40E94EB024CE01A
S113058065E082E00E9444046091620081E40E947C
S1130590EF024CE065E082E00E9444046091620056
S11305A081E40E94EB024CE065E082E00E94440496
S11305B06091620081E40E94EF024CE065E082E019
S11305C00E94440413CF40E00E94F602089541E0E3
S11305D00E94F602089541E00E947003089540E0ED
S11305E00E94700308950E94D4010895823431F169
S11305F018F4813439F008958334E1F1843409F432
S113060054C0089541110CC02AB381E090E002C0A7
S1130610880F991F6A95E2F7809582238ABB089513
S1130620413009F05CC02AB381E090E002C0880F39
S1130630991F6A95E2F7822B8ABB089541110CC079
S113064027B381E090E002C0880F991F6A95E2F712
S11306508095822387BB0895413009F040C027B3B9
S113066081E090E002C0880F991F6A95E2F7822B1F
S113067087BB089541110CC024B381E090E002C00F
S1130680880F991F6A95E2F78095822384BB0895A9
S1130690413029F524B381E090E002C0880F991F0E
S11306A06A95E2F7822B84BB089541110CC021B3F3
S11306B081E090E002C0880F991F6A95E2F7809567
S11306C0822381BB0895413051F421B381E090E04D
S11306D002C0880F991F6A95E2F7822B81BB0895A7
S11306E0823431F118F4813439F008958334E1F11E
S11306F0843409F454C0089541110CC02BB381E033
S113070090E002C0880F991F6A95E2F780958223D2
S11307108BBB0895413009F05CC02BB381E090E0BD
S113072002C0880F991F6A95E2F7822B8BBB08954C
S113073041110CC028B381E090E002C0880F991FDA
S11307406A95E2F78095822388BB0895413009F0C9
S113075040C028B381E090E002C0880F991F6A95D9
S1130760E2F7822B88BB089541110CC025B381E0C8
S113077090E002C0880F991F6A95E2F78095822362
S113078085BB0895413029F525B381E090E002C08E
S1130790880F991F6A95E2F7822B85BB0895411152
S11307A00CC022B381E090E002C0880F991F6A95C3
S11307B0E2F78095822382BB0895413051F422B33D
S11307C081E090E002C0880F991F6A95E2F7822BBE
S11307D082BB08958BB780648BBF0895813051F03C
S11307E028F0823059F0833069F0089585B7846029
S11307F085BF089585B7816085BF089585B78260F8
S113080085BF089585B785BF089582BF0895813057
S113081041F028F0823049F0833059F0089513BE36
S1130820089583B7816083BF089583B7806183BFD0
S1130830089583B7816183BF089590E0883091055E
S113084010F5FC01E65DFF4F0C94610413BE08959E
S113085083B7816083BF089583B7826083BF08959F
S113086083B7836083BF089583B7846083BF08958B
S113087083B7856083BF089583B7866083BF089577
S113088083B7876083BF08951F93CF93DF93C82FE7
S1130890D62F142F80E00E940704812F0E940504A4
S11308A08D2F0E941D0407C008B600FEFDCF88B737
S11308B0816088BFC150C111F7CFDF91CF911F91E3
S11308C00895EE0FFF1F0590F491E02D0994F8941C
S10508D0FFCF54
S10508D202001E
S9030000FC
